:100000000C94CD000C94EA000C94EA000C94EA00E5
:100010000C94EA000C94EA000C94EA000C94EA00B8
:100020000C94EA000C94EA000C94EA000C94C501CC
:100030000C94EA000C94EA000C94EA000C94EA0098
:100040000C94EA000C94EA000C94EA000C94EA0088
:100050000C94EA000C94EA000C94EA000C94EA0078
:100060000C94EA000C94EA0001151B0A0E0A0E0A11
:100070000E0F14000F1400010002061113300611B8
:100080000611001010202001010002061113300695
:10009000110611000000000001010016070D375580
:1000A000070D1725000000020201000003070F13CF
:1000B00027070F050D00101525250101000409195A
:1000C0001E4A091909190C18000C18010100050332
:1000D0000E1122030E030E00101C28300101000631
:1000E000020485A50204576D0205050B0B010000F3
:1000F00012030A0A12030A0106000E142028010145
:100100000013090F050D090F0C180000000D0D015B
:100110000100070F150F15010101010207070D0D61
:100120000000010805081F2805080C110005050F2F
:100130000F01000009070D070B01010101050D0D5D
:1001400015150000030C020485A50204576D020674
:10015000060C0C0100000D14210409070D142000E9
:1001600000000A0A0100000E0305A8CF0305374668
:1001700000000313140100000F070E070E01010118
:10018000010000010B110001031104060406010126
:100190000101020E0F171700000311241FBECFEF3D
:1001A000D4E0DEBFCDBF11E0A0E0B1E0ECEAF5E1C4
:1001B00002C005900D92A23FB107D9F712E0A2EF5D
:1001C000B1E001C01D92AB35B107E1F70E942E01ED
:1001D0000C94D40A0C940000982F8091C00085FFE5
:1001E000FCCF9093C6000895FC0107C08091C00029
:1001F00085FFFCCF31969093C60090819923B1F78B
:10020000089590E390933D0298E790933E02982FD3
:1002100092959F70905D90933F028F70805D809368
:10022000400210924102EDE3F2E007C08091C0006D
:1002300085FFFCCF31969093C60090819923B1F74A
:1002400008958FE891E0909389008093880089E079
:100250008093810082E080936F0008950F931F9335
:10026000DF93CF9300D000D000D0CDB7DEB789E1C7
:100270008093C4001092C5001092C00088E0809363
:10028000C10086E08093C200E0E0F1E007C0809109
:10029000C00085FFFCCF31969093C60090819923D2
:1002A000B1F7EFE0F1E007C08091C00085FFFCCF1F
:1002B00031969093C60090819923B1F70E94E9018D
:1002C0008FE891E0909389008093880089E0809383
:1002D000810082E080936F0078948E010F5F1F4F42
:1002E000C8010E94EC018823D9F3EBE1F1E007C0DB
:1002F0008091C00085FFFCCF31969093C60090811D
:100300009923B1F7E981F0E0EE0FFF1FEE53FE4FA6
:100310000190F081E02D07C08091C00085FFFCCFE7
:1003200031969093C60090819923B1F7E4E2F1E011
:1003300007C08091C00085FFFCCF31969093C60026
:1003400090819923B1F78A810E940101E0E3F1E0F5
:1003500007C08091C00085FFFCCF31969093C60006
:1003600090819923B1F78C810E940101ECE3F1E0C7
:1003700007C08091C00085FFFCCF31969093C600E6
:100380009081992309F4ACCFF4CF1F920F920FB64E
:100390000F9211242F933F934F935F936F937F930B
:1003A0008F939F93AF93BF93EF93FF930E94C203EA
:1003B000FF91EF91BF91AF919F918F917F916F913D
:1003C0005F914F913F912F910F900FBE0F901F9013
:1003D0001895409838980895FC018091240288234C
:1003E00009F4CBC080912502833069F0843020F479
:1003F000823009F0A1C02EC0813109F456C083318A
:1004000009F09AC066C0209128023091290280919B
:10041000280290912902232F332780959095907080
:100420002817390709F0A6C0809128029091290267
:100430009070909329028093280220912802309195
:10044000290280912A0290912B02982F8827822BD3
:10045000932B6EC0209128023091290280912802AE
:1004600090912902232F332780959095907028171B
:100470003907A9F080912602909127028E5E974855
:1004800009F078C08BE0809325028091280290913A
:100490002902892F99279093270280932602809121
:1004A000280290912902907043C080912802909177
:1004B000290220912802309129029695879582275A
:1004C00080FF58C0809128029091290296958795C7
:1004D0002FC080912802909129028C70907096957F
:1004E0008795969587959093270280932602209171
:1004F000280230912902809128029091290240918E
:1005000028025091290283709070982F88272070BC
:1005100030713695279536952795822B932B407F02
:100520005F7024E0569547952A95E1F7842B952B2B
:1005300090932902809328028091250280838091E4
:1005400026029091270292838183809128029091C4
:1005500029029483838380912C028583109229023F
:1005600010922802109227021092260210922C025A
:1005700081E001C080E0109224020895F82F60917C
:10058000010270910B02671738F180910C02681715
:1005900018F5809111022F2F30E040912D025091DB
:1005A0002E02882381F0862F90E0871B910902C0DC
:1005B000220F331F8A95E2F7422B532B50932E02C2
:1005C00040932D0269C0440F551F242B352B3093C7
:1005D0002E0220932D0260C070910D02671718F152
:1005E00080910E026817F8F4809111022F2F30E0ED
:1005F00040912F0250913002882381F0862F90E0A5
:10060000871B910902C0220F331F8A95E2F7422B04
:10061000532B5093300240932F023EC0440F551F7E
:10062000242B352B35C0809102028330D1F4613107
:1006300098F1653188F58F2F90E0262F30E0215119
:10064000304002C0880F991F2A95E2F720913502A9
:1006500030913602282B392B309336022093350205
:100660001BC08530C9F46431B8F06831A8F48F2F0D
:1006700090E0262F30E02850304002C0880F991FAC
:100680002A95E2F720912F0230913002282B392B46
:100690003093300220932F0280910202853051F571
:1006A000603340F5262F30E0E62FE695E695E69597
:1006B000FF2381F0F0E0E95CFD4F2770307081E0AE
:1006C00090E002C0880F991F2A95E2F72081282B1D
:1006D000208310C0F0E0E95CFD4F2770307081E0AE
:1006E00090E002C0880F991F2A95E2F7809520813B
:1006F000822380836F5F609301020895982F809119
:10070000020220910102882311F0225001C02150E1
:1007100040911C022417C8F080911D022817A8F4EC
:10072000892F90E030E0241B310902C0880F991F07
:100730002A95E2F72091310230913202282B392B91
:100740003093320220933102089540911E02241703
:10075000C0F080911F022817A0F4892F90E030E0AC
:10076000241B310902C0880F991F2A95E2F72091B6
:10077000330230913402282B392B309334022093EA
:100780003302089596B180912402882309F000C7AE
:100790009170809100028823E1F54091FD01992339
:1007A00021F44F5F4093FD01F3C6442319F181E02A
:1007B000809300028093FE011092FF01109230029C
:1007C00010922F0210922E0210922D0210923402DB
:1007D0001092330210923202109231028FEF809306
:1007E000010281E090E09093FC018093FB01109264
:1007F000F501CEC68091F9019091FA012FEF8F3F5C
:10080000920709F4C5C601969093FA018093F90105
:10081000BFC68091FE01882309F404C24091FD0106
:100820009923B9F08091FB019091FC01019690937E
:10083000FC018093FB014252453120F021E08B34D2
:10084000920720F48F54924008F4FDC48091250251
:10085000DAC210921302842F8A528D3060F4809194
:10086000FB019091FC018930910528F00F9718F455
:1008700068E670E08AC180912502843171F44B36BC
:1008800060F04E3F50F48091FB019091FC01813467
:10089000910518F08B3B910570F0842F8B568339AE
:1008A000B0F48091FB019091FC018533910530F00B
:1008B0008038910530F469E770E067C18A319105AD
:1008C00030F08134910518F46AE870E05EC1842F3D
:1008D0008252853170F48091FB019091FC0121E0FE
:1008E000813B920730F08C58924018F46BE970E02D
:1008F0004CC1842F8055853168F48091FB01909123
:10090000FC018035910530F08536910518F46CEACC
:1009100070E03BC1842F87538F3168F48091FB01D5
:100920009091FC018733910530F08635910518F4DC
:100930006DEB70E02AC1842F8C53803160F480917C
:10094000FB019091FC018D31910528F0879718F4F7
:100950006EEC70E01AC1542F5250533068F48091FD
:10096000FB019091FC018538910530F0863A9105A4
:1009700018F46FED70E009C1842F8F50873020F09C
:100980008F508D3008F04AC02091FB013091FC015E
:10099000C9010F97079720F0C9014E970D97F0F501
:1009A000842F85528B3058F42031310540F02731A7
:1009B000310528F483E192E060EF70E00DC043520E
:1009C0004B3070F42332310558F02E32310540F4AB
:1009D00083E192E061E071E041E150E00E94CB0AE6
:1009E0002091FB013091FC013093F4012093F3013D
:1009F0008091FD018651853128F026513040253106
:100A0000310530F41092F20180E48093F50103C0C7
:100A100081E08093F20162E171E0B7C0842F8550DC
:100A2000843078F42091FB013091FC01C9014F978B
:100A30000A9708F4A8C02C5030402630310508F43D
:100A4000A2C0842F8F528E3098F48091FB01909138
:100A5000FC018F30910560F0469750F41092F4013C
:100A60001092F30181E08093F20164E371E08DC0A4
:100A7000533068F48091FB019091FC01843491051E
:100A800030F08E34910518F465E471E07EC0842F57
:100A900084518E3060F48091FB019091FC01843090
:100AA000910528F00A9718F466E571E06EC0842F6E
:100AB0008350833078F48091FB019091FC0187335F
:100AC000910540F08734910528F41092F20167E611
:100AD00071E05BC0842F87508830A0F48091FB01C7
:100AE0009091FC018B32910568F08134910550F4AE
:100AF0009093F4018093F30181E08093F20168E721
:100B000071E043C0842F8450833018F084508530C6
:100B1000B0F42091FB013091FC01C90104970397C7
:100B200020F0C9010897059750F43093F401209301
:100B3000F30181E08093F20169E871E026C0842F1F
:100B400085528B3060F48091FB019091FC018031E3
:100B5000910528F0479718F460EF70E016C04352F3
:100B60004B3060F48091FB019091FC018332910540
:100B700028F08E9718F461E071E007C0109200022F
:100B800060E070E002C063E271E0809100028823BF
:100B900031F082E092E041E150E00E94CB0A1092F5
:100BA000010280911202282F30E080FF21C0809145
:100BB00002028930E9F04091FB015091FC018091E3
:100BC000040290E08417950750F4880F991F84174A
:100BD000950728F036952795822F809507C080913C
:100BE000F2018823A9F436952795822F81700EC0D3
:100BF00080910202883061F48091FB019091FC01A8
:100C00004F970A9710F481E001C080E00E94BE0275
:100C100081E08093FD011092FC011092FB01109283
:100C2000FE0111C38091FF01882309F4FBC29923BF
:100C300009F4F2C09091010280910F02981799F483
:100C400080911002813079F49091FD01809107022A
:100C5000981708F4D8C080910802891708F4D3C007
:100C600010921002F0C26091FB017091FC016F5F65
:100C70007F4F7093FC016093FB0150910202513051
:100C800051F56F30710508F463C0409101024B309B
:100C900008F45EC04F5F40930F024150242F30E0B4
:100CA0002B503040322F222780912D0290912E021E
:100CB000822B932B90932E0280932D0280910D0214
:100CC000840F8F5F80930E028DE090E09093FC0183
:100CD0008093FB01A1C05F30D9F580911002882379
:100CE000B9F58091060290E0880F991F8617970743
:100CF00040F480910102883020F08AE080930F0256
:100D000041C0809101028A3008F49DC280E1809345
:100D1000020299E090930B0281E180930C0281E042
:100D200080930D0290930E0220912F023091300299
:100D3000C90180709370892B09F485C230932D020C
:100D400010922E0230703093300220932F027BC21B
:100D50008091120280FF1AC08091060290E0880FF5
:100D6000991F8617970790F42091010230E0809137
:100D70000F0290E002972817390744F08091100283
:100D8000882321F481E08093100246C06B547140A7
:100D900008F459C240910102242F30E080910F02E3
:100DA00090E001972817390741F4809110028823B9
:100DB00021F44F5F4093010246C2523021F5405169
:100DC000423008F541E04093100284E18093020232
:100DD0008091010280930F0280912D0290912E024A
:100DE0009C01A4E036952795AA95E1F7309330024F
:100DF00020932F028F70907090932E0280932D027B
:100E00004093000220C2109200021092FD01109245
:100E1000FC011092FB0117C280911202282F30E0D2
:100E200080FF3EC19091FD0180910402891708F076
:100E30004EC080910202893091F480910102843089
:100E400071F4903160F080910F02843221F481E0DE
:100E50000E94BE0229C080E00E94BE0222C03695D8
:100E60002795822F809581700E94BE028091020298
:100E70008930E1F4809101028430C1F48091FD0158
:100E80008031A0F081E00E94BE028091060290E0D5
:100E9000880F991F2091FB013091FC018217930765
:100EA00018F41092F2017DC081E00EC08091120210
:100EB00090E09695879581700E94BE028091120203
:100EC00090E09695879581708093F2016AC0809139
:100ED00003029817D0F12091F3013091F401809131
:100EE000060290E08217930770F4880F991F82170B
:100EF000930748F020E08091F201882309F421E073
:100F00002093F20102C02091F20180910202893007
:100F1000C1F4809101028130A1F4213091F494E276
:100F200090930F0285E080930B0284E180930C0282
:100F300085E180930D0290930E0210922E02109282
:100F40002D02822F0E94BE022CC08091130282319A
:100F500091F4933000F19B30F0F42091FB0130913B
:100F6000FC01C9010A97099798F0215030402630BA
:100F7000310588F40DC0833171F4993060F09031FF
:100F800050F48091FB019091FC010597449718F46F
:100F90001092020206C0109200021092FC01109200
:100FA000FB01809113028231B9F58091FD018330FC
:100FB00098F18B3088F52091FB013091FC01C9013B
:100FC0000A97099710F481E006C02150304026307E
:100FD000310518F480E00E947E038091020288238C
:100FE000D9F4A2E0B2E0E3E1F2E081E101900D92F8
:100FF0008150E1F7109213028091310290913202F8
:1010000090932E0280932D028091330290913402AE
:101010009093300280932F02809113028331B9F5AF
:101020008091FD01893098F1803188F52091FB0194
:101030003091FC01C9010597099710F481E006C0C1
:101040002C5030402D30310518F480E00E947E0392
:10105000809102028823D9F4A2E0B2E0E3E1F2E059
:1010600081E101900D928150E1F71092130280917D
:1010700031029091320290932E0280932D02809142
:101080003302909134029093300280932F0280912A
:10109000FB019091FC019093F4018093F301B7C0A0
:1010A00080910202833089F580910102803109F03C
:1010B00077C08091FD018750893008F0ABC08091E6
:1010C000FB019091FC018035910558F08536910522
:1010D00040F41092FF01109236021092350281E125
:1010E0003EC08AE08093020280E180930D0280E29C
:1010F00080930E0280930F028091FB019091FC017E
:101100004397459708F080C065C08E3009F048C00D
:101110008091FD018350833008F07CC080910102F2
:10112000813071F48091FB019091FC018E5F9040C1
:101130008C34910508F06EC01092FF0182E00FC060
:101140002091FB013091FC01833161F4205E30403D
:101150002132310508F05EC01092FF0184E18093D6
:1011600001025EC0C901885A9040889738F481E036
:101170000E94BE0281E08093F20149C0C901C79775
:10118000409730F480E00E94BE021092F2013FC00E
:10119000205730402C313105E8F58091F20135C0FF
:1011A0004091FD01809103024817B0F08091040244
:1011B000841790F02091FB013091FC018091050291
:1011C00090E02817390740F08091060290E08217DE
:1011D000930710F081E019C0809107024817D0F002
:1011E000809108028417B0F02091FB013091FC013E
:1011F0008091090290E02817390760F080910A0277
:1012000090E08217930730F080E00E94BE021092B7
:10121000FF0106C0109200021092FC011092FB0127
:1012200081E005C0992331F48091FD018F5F8093A7
:10123000FD0109C081E08093FF0181E090E090937F
:10124000FC018093FB0180910002882309F4A0C176
:101250009091010280910F02981709F099C1809135
:101260001002882309F094C12091EE013091EF0122
:1012700080912F02909130022817390769F48091EC
:10128000F9019091FA018054964030F48091F80170
:101290008F5F8093F80102C01092F80180910202E2
:1012A000813031F48091F80181508230A8F40FC070
:1012B000853029F48091F801813071F408C08A30BA
:1012C00011F08D3049F48091F80180FF05C0109233
:1012D000FA011092F9010FC181E08093240240913C
:1012E0000202483049F560912F02709130029B0153
:1012F0002095309533708091F6019091F701281771
:10130000390799F43093300220932F02409325023D
:1013100080912D0290912E029093270280932602B5
:101320003093290220932802E6C010922402709381
:10133000F7016093F601DFC04F3041F480912F0236
:10134000909130028F5F9140E9F510C0403189F4EF
:1013500080912D0290912E028F3F910599F58091F9
:101360002F02909130028E3F910561F51092240278
:10137000C2C0423039F580910102882319F580916D
:10138000F9019091FA0180569940D0F48091F001D2
:101390009091F10190932E0280932D028091EE01A5
:1013A0009091EF019093300280932F0280912C0254
:1013B000816080932C021092FA011092F90102C010
:1013C0001092240280910202853041F5809137020B
:1013D00090913802282F2F7082958F702827892F9F
:1013E0008F70282792959F70292730E080913902CD
:1013F00090E08F7090702817390711F01092240236
:1014000080913A0290913902892790913B02892775
:1014100090913C02891711F01092240290910202DF
:10142000993041F480910F02843221F485E1809358
:10143000250202C09093250280910202823171F54B
:1014400080912F02909130029C0144E036952795BF
:101450004A95E1F78F709070892B09F020683093DE
:10146000300220932F0240912D0250912E029A01BA
:10147000220F331F220F331F20703F7080912F02E5
:1014800090913002822B932B9093300280932F0205
:101490004F73507050932E0240932D0280912D0275
:1014A00090912E0290932702809326029093F1014F
:1014B0008093F00180910202873069F42091F50158
:1014C00030E080912F0290913002822B932B9093E9
:1014D000300280932F0280912F02909130029093DE
:1014E00029028093280280913502909136029093D0
:1014F0002B0280932A02809124028823B1F120914B
:101500002802309129028091EE019091EF0182171B
:101510009307B9F420912602309127028091F001BF
:101520009091F1018217930761F48091F9019091F4
:10153000FA01885B9B4028F480912C0281608093A3
:101540002C0280912D0290912E029093F1018093B4
:10155000F00180912F02909130029093EF018093DF
:10156000EE011092FA011092F9011092000210920D
:10157000300210922F021092FD011092FC01109285
:10158000FB0180912502843119F483EB8093FD01E6
:10159000809124020895FB01DC0102C005900D92A8
:0C15A00041505040D8F70895F894FFCF58
:1015AC005243352D44656B6F6465723A0A0D0049E0
:1015BC00524D502056312E300A0D000A0D436F64E7
:1015CC00653A20000A0D416464726573733A200019
:1015DC000A0D436F6D6D616E643A20000A0D005365
:1015EC0049524353004E45430053414D53554E47CA
:1015FC00004D415453555348004B415345494B59A9
:10160C004F00524543533830005243352878290057
:10161C0044454E4F4E005243360053414D534733D1
:10162C0032004150504C450052454353383058001D
:10163C004E55424552540042264F004752554E4497
:10164C004947004E4F4B4941005349454D454E5378
:10165C0000464443005243434152004A5643005211
:10166C00433641003F0145014901510159016201D5
:10167C006901700176017A0182018801900197015C
:10168C009B01A301A901B101B501BB01BF01FFFF82
:02169C00FFFF4E
:00000001FF
