:1000000012C02CC02BC02AC029C028C027C026C0BF
:1000100025C033C023C022C021C020C01FC01EC0C5
:100020001DC01CC01BC011241FBECFE5D4E0DEBF25
:10003000CDBF10E0A0E6B0E0EEEBF2E002C005902C
:100040000D92A237B107D9F710E0A2E7B0E001C0E6
:100050001D92A837B107E1F768D02FC1D1CF5D9BC2
:10006000FECF8CB90895FC0104C05D9BFECF319694
:100070008CB980818823C9F708951F920F920FB61B
:100080000F9211242F933F934F938F939F9320911F
:100090007500309176008EEF82BF909174009F5F63
:1000A00090937400923158F036FD07C035FF05C0BB
:1000B000309373002093720002C020E030E0409142
:1000C000770083B3842780FF22C040954093770058
:1000D000963038F45D9BFECF88E58CB920E030E0A7
:1000E00005C02115310511F09C3088F036FD07C0A0
:1000F0005D9BFECF81E38CB9220F331F04C05D9B53
:10010000FECF82E38CB940FF2160109274003093DF
:100110007600209375009F918F914F913F912F9181
:100120000F900FBE0F901F901895DF92EF92FF92E5
:100130000F931F93DF93CF93CDB7DEB76E970FB6B4
:10014000F894DEBF0FBECDBF84E083BF81E089BFDE
:1001500087E689B910BC1BB886E880BD88E18AB9FA
:100160007894E0E6F0E004C05D9BFECF31968CB958
:1001700080818823C9F740E2D42E7E010894E11CD7
:10018000F11C0091720010917300F894789401159D
:100190001105D9F3109273001092720007BB5D9B9A
:1001A000FECF812F8695869586958170805D8CB96E
:1001B0005D9BFECFDCB8C80136E0969587953A95F1
:1001C000E1F78F719070B7014AE050E033D0F7014A
:1001D00004C05D9BFECF31968CB980818823C9F71E
:1001E0005D9BFECFDCB8C80180959095880F892F64
:1001F000881F990B9195807490700F731070802BED
:10020000912BB7014AE050E015D0F70104C05D9B87
:10021000FECF31968CB980818823C9F7EFE6F0E0F4
:1002200004C05D9BFECF31968CB98081882309F490
:10023000A8CFF7CFFB019F01E8944230BCF04532D4
:10024000ACF44A3029F497FB1EF4909581959F4FAA
:10025000642F77271ED0805D8A330CF0895D8193EF
:10026000CB010097A9F716F45DE251931082C90102
:1002700000C0DC01FC01672F71917723E1F7329711
:1002800004C07C916D9370836291AE17BF07C8F371
:100290000895AA1BBB1B51E107C0AA1FBB1FA617CD
:1002A000B70710F0A61BB70B881F991F5A95A9F71F
:0E02B00080959095BC01CD010895F894FFCF84
:1002BE005243352D44656B6F6465723A0A0D000A20
:0202CE000D0021
:00000001FF
