:100000000C9489000C94A6000C94A6000C94A600F5
:100010000C94A6000C94A6000C94A6000C94A600C8
:100020000C94A6000C94A6000C94A6000C948101DC
:100030000C94A6000C94A6000C94A6000C94A600A8
:100040000C94A6000C94A6000C94A6000C94A60098
:100050000C94A6000C94A6000C94A6000C94A60088
:100060000C94A6000C94A600010A0E0408040804CF
:10007000080F14000F1400010002020909190209F7
:1000800002090010102020010100020209091902D2
:10009000090209000000000001010003030809141F
:1000A00003080207001015252501010004040D0FA7
:1000B00026040D040D0C18000C18010100050107A1
:1000C00008110107010700101C2830010100070773
:1000D0000B070B010101010207070D0D00000108CC
:1000E00002040F15020406090005050F0F010000A8
:1000F000090307030601010101050D0D1515000097
:10010000030F03070307010101010000010B1100A8
:10011000010311241FBECFEFD4E0DEBFCDBF11E03D
:10012000A0E0B1E0E2E3FFE002C005900D92A23F43
:10013000B107D9F712E0A2EFB1E001C01D92A434DB
:10014000B107E1F70E94EA000C9497070C940000B5
:10015000982F8091C00085FFFCCF9093C600089532
:10016000FC0107C08091C00085FFFCCF31969093C1
:10017000C60090819923B1F7089590E390932602E9
:1001800098E790932702982F92959F70905D909397
:1001900028028F70805D8093290210922A02E6E285
:1001A000F2E007C08091C00085FFFCCF31969093AC
:1001B000C60090819923B1F708958FE193E0909361
:1001C00089008093880089E08093810082E0809399
:1001D0006F0008950F931F93DF93CF9300D000D04B
:1001E00000D0CDB7DEB78FEC8093C4001092C5006D
:1001F0001092C00088E08093C10086E08093C20026
:10020000E0E0F1E007C08091C00085FFFCCF3196AF
:100210009093C60090819923B1F7EFE0F1E007C019
:100220008091C00085FFFCCF31969093C6009081ED
:100230009923B1F70E94A5018FE193E09093890083
:100240008093880089E08093810082E080936F0032
:1002500078948E010F5F1F4FC8010E94A801882368
:10026000D9F3EBE1F1E007C08091C00085FFFCCF3E
:1002700031969093C60090819923B1F7E981F0E01F
:10028000EE0FFF1FEE53FE4F0190F081E02D07C0EF
:100290008091C00085FFFCCF31969093C60090817D
:1002A0009923B1F7E4E2F1E007C08091C00085FF37
:1002B000FCCF31969093C60090819923B1F78A8143
:1002C0000E94BD00E0E3F1E007C08091C00085FF1F
:1002D000FCCF31969093C60090819923B1F78C8121
:1002E0000E94BD00ECE3F1E007C08091C00085FFF3
:1002F000FCCF31969093C6009081992309F4ACCF3E
:10030000F4CF1F920F920FB60F9211242F933F93A9
:100310004F935F936F937F938F939F93AF93BF930D
:10032000EF93FF930E94EB02FF91EF91BF91AF918A
:100330009F918F917F916F915F914F913F912F91FD
:100340000F900FBE0F901F90189540983898089501
:10035000FC0180911102882309F47CC08091120273
:10036000823051F1833009F054C020911502309150
:1003700016028091150290911602232F3327809543
:10038000909590702817390709F061C08091150287
:10039000909116029070909316028093150220910E
:1003A0001502309116028091170290911802982F31
:1003B0008827822B932B29C0209115023091160299
:1003C0008091150290911602232F332780959095E6
:1003D000907028173907A1F08091130290911402B0
:1003E0008E5E9748A1F58BE08093120280911502F2
:1003F00090911602892F99279093140280931302EB
:10040000809115029091160290709093160280933D
:100410001502809112028083809113029091140240
:100420009283818380911502909116029483838335
:100430008091190285831092160210921502109273
:100440001402109213021092190281E001C080E0A0
:10045000109211020895F82F6091FF017091090226
:10046000671738F180910A02681718F580910F021A
:100470002F2F30E040911A0250911B02882381F007
:10048000862F90E0871B910902C0220F331F8A95A7
:10049000E2F7422B532B50931B0240931A0269C080
:1004A000440F551F242B352B30931B0220931A0227
:1004B00060C070910B02671718F180910C026817E9
:1004C000F8F480910F022F2F30E040911C025091E0
:1004D0001D02882381F0862F90E0871B910902C0BE
:1004E000220F331F8A95E2F7422B532B50931D02A4
:1004F00040931C023EC0440F551F242B352B35C0A2
:10050000809100028330D1F4613198F1653188F532
:100510008F2F90E0262F30E02151304002C0880F0D
:10052000991F2A95E2F720911E0230911F02282B75
:10053000392B30931F0220931E021BC08530C9F453
:100540006431B8F06831A8F48F2F90E0262F30E0A6
:100550002850304002C0880F991F2A95E2F7209159
:100560001C0230911D02282B392B30931D02209341
:100570001C0280910002853051F5603340F5262F32
:1005800030E0E62FE695E695E695FF2381F0F0E072
:10059000E05EFD4F2770307081E090E002C0880F70
:1005A000991F2A95E2F72081282B208310C0F0E0C4
:1005B000E05EFD4F2770307081E090E002C0880F50
:1005C000991F2A95E2F780952081822380836F5FAF
:1005D0006093FF0108951F9396B1809111028823C3
:1005E00009F098C491708091FE01882371F5809183
:1005F000FB01992311F48F5F8BC48823B9F091E03C
:100600009093FE019093FC011092FD0110921D0247
:1006100010921C0210921B0210921A028FEF80930C
:10062000FF019093FA011092F40174C48091F801D3
:100630009091F9012FEF8F3F920709F46BC4019657
:100640009093F9018093F80165C48091FC0188239F
:1006500009F407C1992359F08091FA018F5F8093C3
:10066000FA01863A08F4EEC280911202D9C12091B3
:10067000FB01822F8551873048F48091FA01843044
:1006800028F0883018F468E670E0A4C08091120267
:10069000843151F4253340F027FD06C08091FA01E2
:1006A000803210F08E3550F0822F85538B3480F4D9
:1006B0008091FA018A3128F0813428F469E770E0EA
:1006C00089C08C3028F0813218F46AE870E082C06A
:1006D000822F87528C3048F48091FA01873228F0BB
:1006E000833318F46BE970E075C0822F8B51813130
:1006F00048F48091FA018B3128F08C3218F46CEABE
:1007000070E068C0822F8D518A3048F48091FA01E0
:100710008E3028F0853118F46DEB70E05BC0822FCD
:100720008750853018F087508930E8F49091FA01AD
:10073000892F8750853018F087508930A0F4909326
:10074000F3012C502B3018F09C509B3030F4109259
:10075000F20180E48093F40103C081E08093F20110
:100760006EEC70E037C0822F8250833048F4909155
:10077000FA01892F8F50873058F19650943040F10C
:10078000822F8751883070F48091FA01873050F0C1
:100790008C3040F41092F30181E08093F20160EF1D
:1007A00070E018C02350253070F48091FA01863132
:1007B00050F0823240F48093F30181E08093F201A3
:1007C00061E071E007C01092FE0160E070E002C0DD
:1007D0006FED70E08091FE01882331F080E092E0BF
:1007E00041E150E00E948E071092FF0180911002BB
:1007F000482F50E080FF1FC0809100028930D9F05F
:100800002091FA0180910202821760F430E090E0BA
:10081000880F991F821793072CF056954795842FC0
:10082000809507C08091F201882399F456954795E9
:10083000842F81700CC080910002883051F4809127
:10084000FA018F50873010F481E001C080E00E94EF
:100850002B0281E08093FB011092FA011092FC01BF
:10086000F1C18091FD01882309F4DFC1992309F4C6
:10087000DEC05091FF0170910D02571799F48091DD
:100880000E02813079F49091FB0180910502981756
:1008900008F4C6C080910602891708F4C1C01092FE
:1008A0000E02D0C14091FA014F5F4093FA0160916E
:1008B0000002613021F5493008F45CC05B3008F477
:1008C00059C05F5F50930D025150252F30E02B50DF
:1008D0003040322F222780911A0290911B02822BE6
:1008E000932B90931B0280931A0280910B02580F56
:1008F0005F5F50930C0287E08093FA0198C06F30DD
:10090000C9F580910E028823A9F5242F30E080914B
:10091000040290E0880F991F8217930734F458302F
:1009200020F08AE080930D023FC05A3008F48AC15B
:1009300080E18093000299E09093090281E1809325
:100940000A0281E080930B0290930C0220911C021A
:1009500030911D02C90180709370892B09F472C116
:1009600030931A0210921B02307030931D022093B4
:100970001C0268C18091100280FF1AC0242F30E051
:100980008091040290E0880F991F8217930784F4E6
:10099000252F30E0872F90E002972817390744F081
:1009A00080910E02882321F481E080930E023FC0E3
:1009B000463A08F447C1252F30E0872F90E0019791
:1009C0002817390741F480910E02882321F45F5FD4
:1009D0005093FF0137C1623019F5852F8051823065
:1009E000F8F441E040930E0284E1809300025093BA
:1009F0000D0280911A0290911B029C0154E03695E1
:100A000027955A95E1F730931D0220931C028F70B1
:100A1000907090931B0280931A024093FE0112C1C2
:100A20001092FE011092FB011092FA010BC180910D
:100A30001002282F30E080FF97C01091FB018091B9
:100A40000202811708F04BC080910002893091F4B6
:100A50008091FF01843071F4183060F080910D02B4
:100A6000843221F481E00E942B0226C080E00E94A3
:100A70002B021FC036952795822F809581700E948A
:100A80002B02809100028930C9F48091FF018430EB
:100A9000A9F4183098F081E00E942B022091FA010D
:100AA00030E08091040290E0880F991F821793072D
:100AB0001CF41092F20153C081E00EC0809110022C
:100AC00090E09695879581700E942B02809110028C
:100AD00090E09695879581708093F20140C0809157
:100AE00001021817C0F12091F301809104028217CE
:100AF00080F430E090E0880F991F821793074CF044
:100B000020E08091F201882309F421E02093F20192
:100B100002C02091F201809100028930C1F48091DD
:100B2000FF018130A1F4213091F494E290930D0201
:100B300085E08093090284E180930A0285E1809335
:100B40000B0290930C0210921B0210921A02822F39
:100B50000E942B0204C01092FE011092FA018091B3
:100B6000FA018093F30144C080910002833049F57B
:100B70008091FF01803129F58091FB0183508630FF
:100B800008F04DC09091FA01973260F0933350F421
:100B90001092FD0110921F0210921E0281E18093BB
:100BA000FF0141C08AE08093000280E180930B0244
:100BB00080E280930C0280930D0299509C3068F57E
:100BC00014C09091FB01809101029817A0F08091D0
:100BD0000202891780F02091FA0180910302281700
:100BE00050F080910402821730F081E00E942B02C5
:100BF0001092FD0118C080910502981780F0809135
:100C00000602891760F09091FA0180910702981707
:100C100030F080910802891710F080E0E7CF109241
:100C2000FE011092FA0181E005C0992331F4809110
:100C3000FB018F5F8093FB0105C081E08093FD0184
:100C40008093FA018091FE01882309F463C14091E9
:100C5000FF0180910D02481709F05CC180910E02DE
:100C6000882309F057C12091EE013091EF01809166
:100C70001C0290911D022817390769F48091F80130
:100C80009091F9018052934030F48091F7018F5F89
:100C90008093F70102C01092F70160910002613069
:100CA00031F48091F7018150823098F40DC06530A5
:100CB00029F48091F701813061F406C06A3049F46B
:100CC0008091F70180FF05C01092F9011092F801A0
:100CD000D6C081E080931102683049F540911C0232
:100CE00050911D029A012095309533708091F50145
:100CF0009091F6012817390799F430931D0220933B
:100D00001C026093120280911A0290911B02909330
:100D10001402809313023093160220931502AFC081
:100D2000109211025093F6014093F501A8C06F3064
:100D300049F480911C0290911D028F5F914009F04F
:100D400071C012C0603199F480911A0290911B0217
:100D50008F3F910509F066C080911C0290911D02A1
:100D60008E3F910509F05EC01092110288C062307A
:100D700029F5442309F056C08091F8019091F901BA
:100D8000805B944008F041C08091F0019091F101A6
:100D900090931B0280931A028091EE019091EF01D3
:100DA00090931D0280931C028091190281608093B0
:100DB00019021092F9011092F80134C0653041F522
:100DC000809120029091210240912202282F2F70C1
:100DD00082958F702827892F8F70282792959F7072
:100DE000292730E0842F90E08F7090702817390702
:100DF00011F0109211028091230248278091240261
:100E0000482780912502481769F0109211020AC004
:100E1000693041F480910D02843221F485E18093A0
:100E2000120202C06093120280911A0290911B027A
:100E300090931402809313029093F1018093F00138
:100E4000673069F42091F40130E080911C029091A8
:100E50001D02822B932B90931D0280931C02809184
:100E60001C0290911D0290931602809315028091AE
:100E70001E0290911F029093180280931702809196
:100E800011028823B1F12091150230911602809150
:100E9000EE019091EF0182179307B9F420911302AC
:100EA000309114028091F0019091F1018217930723
:100EB00061F48091F8019091F9018C5D954028F4DE
:100EC0008091190281608093190280911A02909199
:100ED0001B029093F1018093F00180911C0290918C
:100EE0001D029093EF018093EE011092F901109290
:100EF000F8011092FE0110921D0210921C02109235
:100F0000FB011092FA0180911202843119F489E5F3
:100F10008093FB01809111021F910895FB01DC0178
:100F200002C005900D9241505040D8F70895F894B2
:020F3000FFCFF1
:100F32005243352D44656B6F6465723A0A0D004960
:100F4200524D502056312E300A0D000A0D436F6467
:100F5200653A20000A0D416464726573733A200099
:100F62000A0D436F6D6D616E643A20000A0D0053E5
:100F720049524353004E45430053414D53554E474A
:100F8200004D415453555348004B415345494B5929
:100F92004F005245435338300052433528782900D8
:100FA20044454E4F4E005243360053414D53473352
:100FB20032004150504C450052454353383058009E
:100FC2004E55424552540042264F004752554E4418
:100FD2004947004E4F4B4941005349454D454E53F9
:100FE20000464443005243434152004A5643005292
:100FF200433641003F014501490151015901620156
:101002006901700176017A018201880190019701DC
:101012009B01A301A901B101B501BB01BF01FFFF02
:02102200FFFFCE
:00000001FF
