:100000000C944E000C946B000C946B000C946B00E1
:100010000C946B000C946B000C946B000C946B00B4
:100020000C946B000C946B000C946B000C944601C8
:100030000C946B000C946B000C946B000C946B0094
:100040000C946B000C946B000C946B000C946B0084
:100050000C946B000C946B000C946B000C946B0074
:100060000C946B000C946B0002020909190209023E
:1000700009001010202001010002020909190209DB
:100080000209000000000001010007070B070B0137
:100090000101010207070D0D0000010011241FBE20
:1000A000CFEFD4E0DEBFCDBF11E0A0E0B1E0E0E1F2
:1000B000F9E002C005900D92A23FB107D9F712E016
:1000C000A2EFB1E001C01D92A833B107E1F70E9491
:1000D000AF000C9486040C940000982F8091C0000F
:1000E00085FFFCCF9093C6000895FC0107C0809166
:1000F000C00085FFFCCF31969093C6009081992374
:10010000B1F7089590E390931A0298E790931B0239
:10011000982F92959F70905D90931C028F70805DD8
:1001200080931D0210921E02EAE1F2E007C0809166
:10013000C00085FFFCCF31969093C6009081992333
:10014000B1F708958FE193E0909389008093880040
:1001500089E08093810082E080936F0008950F937F
:100160001F93DF93CF9300D000D000D0CDB7DEB780
:1001700089E18093C4001092C5001092C00088E00D
:100180008093C10086E08093C200E0E0F1E007C008
:100190008091C00085FFFCCF31969093C60090817E
:1001A0009923B1F7EFE0F1E007C08091C00085FF2F
:1001B000FCCF31969093C60090819923B1F70E94AD
:1001C0006A018FE193E0909389008093880089E031
:1001D0008093810082E080936F0078948E010F5F9E
:1001E0001F4FC8010E946D018823D9F3EBE1F1E0B4
:1001F00007C08091C00085FFFCCF31969093C60068
:1002000090819923B1F7E981F0E0EE0FFF1FEE53E3
:10021000FE4F0190F081E02D07C08091C00085FF66
:10022000FCCF31969093C60090819923B1F7E4E218
:10023000F1E007C08091C00085FFFCCF319690931C
:10024000C60090819923B1F78A810E948200E0E381
:10025000F1E007C08091C00085FFFCCF31969093FC
:10026000C60090819923B1F78C810E948200ECE353
:10027000F1E007C08091C00085FFFCCF31969093DC
:10028000C6009081992309F4ACCFF4CF1F920F924E
:100290000FB60F9211242F933F934F935F936F9359
:1002A0007F938F939F93AF93BF93EF93FF930E949E
:1002B0002202FF91EF91BF91AF919F918F917F911A
:1002C0006F915F914F913F912F910F900FBE0F90C3
:1002D0001F901895409838980895FC0180910F025E
:1002E0008823A9F180911002823091F520911302A8
:1002F000309114028091130290911402232F33271E
:1003000080959095907028173907A1F0809111027F
:10031000909112028E5E9748B9F48BE080931002A0
:100320008091130290911402892F992790931202C1
:100330008093110280911302909114029070909317
:1003400014028093130204C080E010920F020895FB
:100350008091100280838091110290911202928309
:1003600081838091130290911402948383838091FE
:100370001502858310921402109213021092120239
:10038000109211021092150281E0DFCF982F609138
:10039000FD0170910702671738F180910802681714
:1003A00018F580910D02292F30E0409116025091EE
:1003B0001702882381F0862F90E0871B910902C0E5
:1003C000220F331F8A95E2F7422B532B50931702CB
:1003D0004093160233C0440F551F242B352B309306
:1003E0001702209316022AC070910902671730F194
:1003F00080910A02681710F580910D02292F30E0D4
:100400004091180250911902882381F0862F90E0C4
:10041000871B910902C0220F331F8A95E2F7422BF6
:10042000532B509319024093180208C0440F551FD4
:10043000242B352B30931902209318026F5F6093A1
:10044000FD01089596B180910F02882309F052C2F0
:10045000292F21708091FC01882381F59091F90169
:10046000222321F49F5F9093F90144C29923B9F0AC
:1004700091E09093FC019093FA011092FB0110928D
:1004800019021092180210921702109216028FEFA2
:100490008093FD019093F8011092F4012BC280919A
:1004A000F6019091F7012FEF8F3F920709F422C2D6
:1004B00001969093F7018093F6011CC28091FA0196
:1004C000882309F483C0222349F08091F8018F5FCB
:1004D0008093F801863A08F461C1CDC02091F901FA
:1004E000822F85538B3480F48091F8018A3128F073
:1004F000813428F468E670E02FC08C3028F0813217
:1005000018F469E770E028C0822F8750853018F012
:1005100087508930E8F49091F801892F8750853011
:1005200018F087508930A0F49093F3012C502B30B1
:1005300018F09C509B3030F41092F20180E48093CC
:10054000F40103C081E08093F2016AE870E004C026
:100550001092FC0160E070E08091FC01882331F092
:100560008EEF91E041E150E00E947D041092FD0188
:1005700080910E02482F50E080FF20C08091FE0144
:100580008930E1F02091F80180910002821760F437
:1005900030E090E0880F991F821793072CF0569552
:1005A0004795842F809507C08091F201882331F40C
:1005B00056954795842F81700E94C60181E08093F3
:1005C000F9011092F8011092FA01E8C08091FB0144
:1005D000882309F4D6C0222309F454C05091FD01A8
:1005E00060910B02561789F480910C02813069F4F6
:1005F0009091F901809103029817E8F1809104022B
:100600008917C8F110920C02C9C04091F8014F5FE0
:100610004093F80180910E0280FF1AC0242F30E031
:100620008091020290E0880F991F8217930784F44B
:10063000252F30E0862F90E002972817390744F0E5
:1006400080910C02882321F481E080930C021AC06F
:10065000463A08F4A3C0252F30E0862F90E001979A
:100660002817390741F480910C02882321F45F5F39
:100670005093FD0193C01092FC011092F901109269
:10068000F8018CC080910E02282F30E09091F90182
:1006900080FF45C0809100028917C0F436952795E8
:1006A000822F809581700E94C60180910E0290E099
:1006B0009695879581700E94C60180910E0290E008
:1006C0009695879581708093F20124C08091FF01F7
:1006D0009817E0F02091F30180910202821780F4D4
:1006E00030E090E0880F991F821793074CF090E05C
:1006F0008091F201882309F491E09093F20102C005
:100700009091F201892F0E94C60104C01092FC0151
:100710001092F8018091F8018093F30115C0809147
:10072000FF019817A0F080910002891780F02091B6
:10073000F80180910102281750F08091020282177F
:1007400030F081E00E94C6011092FB0118C0809138
:100750000302981780F080910402891760F090914D
:10076000F80180910502981730F0809106028917F0
:1007700010F080E0E7CF1092FC011092F80181E0C8
:1007800005C0222331F48091F9018F5F8093F90134
:1007900005C081E08093FB018093F8018091FC010A
:1007A000882309F4A7C03091FD0180910B0238170E
:1007B00009F0A0C080910C02882309F09BC06091D1
:1007C000EE017091EF018091180290911902681763
:1007D000790769F48091F6019091F7018052934076
:1007E00030F48091F5018F5F8093F50102C0109283
:1007F000F50181E080930F022091FE01223009F57E
:100800003323F9F48091F6019091F701805B9440D5
:10081000B0F48091F0019091F101909317028093D0
:10082000160270931902609318028091150281607C
:10083000809315021092F7011092F60102C01092F7
:100840000F0220931002409116025091170250930C
:100850001202409311025093F1014093F0012730AE
:1008600069F42091F40130E080911802909119020E
:10087000822B932B909319028093180220911802D7
:1008800030911902309314022093130280910F02C9
:10089000882331F18091130290911402681779072F
:1008A00099F480911102909112024817590761F44E
:1008B0008091F6019091F7018C5D954028F480912C
:1008C00015028160809315025093F1014093F0016D
:1008D0003093EF012093EE011092F7011092F60190
:1008E0001092FC0110921902109218021092F90154
:1008F0001092F80180910F020895FB01DC0102C003
:1009000005900D9241505040D8F70895F894FFCFCC
:100910005243352D44656B6F6465723A0A0D004988
:10092000524D502056312E300A0D000A0D436F648F
:10093000653A20000A0D416464726573733A2000C1
:100940000A0D436F6D6D616E643A20000A0D00530D
:1009500049524353004E45430053414D53554E4772
:10096000004D415453555348004B415345494B5951
:100970004F00524543533830005243352878290000
:1009800044454E4F4E005243360053414D5347337A
:1009900032004150504C45005245435338305800C6
:1009A0004E55424552540042264F004752554E4440
:1009B0004947004E4F4B4941005349454D454E5321
:1009C00000464443005243434152004A56430052BA
:1009D000433641003F01450149015101590162017E
:1009E0006901700176017A01820188019001970105
:1009F0009B01A301A901B101B501BB01BF01FFFF2B
:020A0000FFFFF6
:00000001FF
