:1000000012C02CC02BC02AC029C028C027C026C0BF
:1000100025C024C023C039C021C020C01FC01EC0BD
:100020001DC01CC01BC011241FBECFE5D4E0DEBF25
:10003000CDBF10E0A0E6B0E0E8E1F1E002C005903D
:100040000D92AA38B107D9F710E0AAE8B0E001C0D4
:100050001D92AA38B107E1F709D05CC0D1CF17BA19
:1000600014BA11BA18BA15BA12BA089517BA14BA4E
:1000700011BA18BA15BA12BA2CD080E690E040D066
:100080008DE790E03DD07894FFCF1F920F920FB68E
:100090000F9211242F933F934F935F936F937F930E
:1000A0008F939F93AF93BF93EF93FF938CB124D023
:1000B000FF91EF91BF91AF919F918F917F916F9140
:1000C0005F914F913F912F910F900FBE0F901F9016
:1000D000189589E189B910BC1BB886E880BD88E90C
:1000E0008AB908955F9902C080E008958CB108959F
:1000F0005F9BFECF8CB108955D9BFECF8CB90895B8
:10010000FC0104C05D9BFECF31968CB980818823B1
:08011000C9F70895F894FFCF30
:100118000D0A0D0A44696E6F732055617274204D83
:100128006F64756C2076302E333A0D0A00284563CB
:0A013800686F204F4E290D0A0000E9
:00000001FF
