:1000000012C02CC02BC02AC029C028C027C026C0BF
:1000100025C024C023C022C021C020C01FC01EC0D4
:100020001DC01CC01BC011241FBECFE5D4E0DEBF25
:10003000CDBF10E0A0E6B0E0E2EBF3E002C0059037
:100040000D92AA37B107D9F710E0AAE7B0E001C0D6
:100050001D92AF37B107E1F702D0A9C1D1CF7ED150
:1000600039D180E197E228EC30E0F9013197F1F7DE
:100070000197D9F781E090E060E070E05CD180E624
:1000800090E0F0D080E197E228EC30E0F901319780
:10009000F1F70197D9F782E090E060E070E04BD192
:1000A0008CE690E0DFD0FFCFC79A8DE08A95F1F71C
:1000B000C79885E88A95F1F70895982F18BA809126
:1000C0007E0087FF14C0892F807F82BBC79A8DE096
:1000D0008A95F1F7C79885E88A95F1F7892F90E01E
:1000E00024E0880F991F2A95E1F782BB01C092BBDB
:1000F000C79A8DE08A95F1F7C79885E88A95F1F758
:10010000089581E0DADF80EA9FE00197F1F7089532
:1001100080917E00846080937E0083FD02C086E033
:1001200001C087E0CADF089580917E008B7F8093B5
:100130007E0083FD02C084E001C085E0BEDF08953B
:1001400080917E00877F80937E0082FD02C084E0E4
:1001500001C086E0B2DF089580917E0088608093C0
:100160007E0082FD02C084E001C086E08160A5DFE0
:10017000089580917E008F7D80937E00982F94FD5E
:1001800002C088E001C08CE096FD826096DF089591
:1001900080917E00806280937E0084FD02C088E0B2
:1001A00001C08CE0836089DF089580917E008F7BA1
:1001B00080937E0084FD02C088E001C08CE07DDF7A
:1001C000089580917E00806480937E00282F24FD16
:1001D00002C098E001C09CE0892F826025FF02C028
:1001E000892F83606ADF089580917E008F7E8093DF
:1001F0007E0088E062DF089580917E0080618093B8
:100200007E00982F96FD02C08CE001C08EE095FD27
:10021000816053DF0895982F80E488BB80917E0031
:1002200087FF16C0892F807F82BBC79A8DE08A9591
:10023000F1F7C79885E88A95F1F7892F992787FD07
:10024000909534E0880F991F3A95E1F782BB01C081
:1002500092BBC79A8DE08A95F1F7C79885E88A9591
:10026000F1F70895CF93DF93EC0102C0D4DF21961C
:1002700088818823D9F7DF91CF91089510927B0070
:1002800010927A0081E090E090937D0080937C0052
:1002900010927E0080E395E70197F1F788E30DDF88
:1002A00080E197E20197F1F788E307DF80ED97E0BF
:1002B0000197F1F788E301DF88E3FFDE88E3FDDEE5
:1002C00093DF1FDF82E0F9DE80EA9FE00197F1F71C
:1002D00093DF089510927B0010927A0081E090E005
:1002E00090937D0080937C0010927E0080E395E7E0
:1002F0000197F1F788E3E1DE80E197E20197F1F7FA
:1003000088E3DBDE80ED97E00197F1F788E3D5DE47
:1003100088E2D3DE80917E00806880937E0088E250
:10032000CCDE62DFEEDE82E0C8DE80EA9FE001978D
:10033000F1F762DF08956932710514F060E070E052
:100340008130910521F0029729F4685D7F4F862F57
:10035000806802C01BD080E8B0DE08958FEF87BBB5
:1003600084BB81BB18BA15BA12BA0895089518163D
:1003700019061CF421E030E007C0892B19F420E0B5
:1003800030E002C02FEF3FEFC901089520E030E0D8
:1003900064E048EE53E082B3862782BBCA0101972E
:1003A000F1F72F5F3F4F26393105A9F70895F894EB
:0203B000FFCF7D
:1003B20048616C6C6F2057656C742100646F6368D0
:0A03C200206E69636874203A290078
:00000001FF
