:100000000C94CD000C94EA000C94EA000C94EA00E5
:100010000C94EA000C94EA000C94EA000C94EA00B8
:100020000C94EA000C94EA000C94EA000C948A0107
:100030000C94EA000C94EA000C94EA000C94EA0098
:100040000C94EA000C94EA000C94EA000C94EA0088
:100050000C94EA000C94EA000C94EA000C94EA0078
:100060000C94EA000C94EA0001151B0A0E0A0E0A11
:100070000E0F14000F1400010002061113300611B8
:100080000611001010202001010002061113300695
:10009000110611000000000001010016070D375580
:1000A000070D1725000000020201000003070F13CF
:1000B00027070F050D00101525250101000409195A
:1000C0001E4A091909190C18000C18010100050332
:1000D0000E1122030E030E00101C28300101000631
:1000E000020485A50204576D0205050B0B010000F3
:1000F00012030A0A12030A0106000E142028010145
:100100000013090F050D090F0C180000000D0D015B
:100110000100070F150F15010101010207070D0D61
:100120000000010805081F2805080C110005050F2F
:100130000F01000009070D070B01010101050D0D5D
:1001400015150000030C020485A50204576D020674
:10015000060C0C0100000D14210409070D142000E9
:1001600000000A0A0100000E0305A8CF0305374668
:1001700000000313140100000F070E070E01010118
:10018000010000010B110001031104060406010126
:100190000101020E0F171700000311241FBECFEF3D
:1001A000D4E0DEBFCDBF12E0A0E0B1E0E4E1F9E1D0
:1001B00002C005900D92AC31B107D9F712E0ACE165
:1001C000B2E001C01D92A237B107E1F70E94010120
:1001D0000C94880C0C9400008FEF84B987B98AB90D
:1001E00015B818B81BB808958FE891E0909389006E
:1001F0008093880089E08093810082E080936F0083
:1002000008958FEF84B987B98AB915B818B81BB8A3
:100210000E94900A0E94450C0E94AE018FE891E076
:10022000909389008093880089E08093810082E028
:1002300080936F0081E090E060E070E00E94140B1A
:1002400080E091E00E94EE0B82E090E060E070E0E0
:100250000E94140B80E191E00E94EE0B88E191E096
:100260000E94B60A789487E692E00E94B101882342
:10027000D1F30E94270B81E090E060E070E00E94E3
:10028000140B83E391E00E94EE0BE0916702F0E033
:10029000EE0FFF1FE551FE4F808191810E94EE0B12
:1002A00082E090E060E070E00E94140B8AE391E04D
:1002B0000E94EE0B809168020E94FB0B8FE391E09D
:1002C0000E94EE0B80916A020E94FB0B84E491E095
:1002D0000E94B60AE0916702F0E0EE0FFF1FE551C1
:1002E000FE4F808191810E94B60A8DE491E00E94C8
:1002F000B60A809168020E94C30A89E591E00E94D3
:10030000B60A80916A020E94C30A85E691E00E94C3
:10031000B60AA9CF1F920F920FB60F9211242F93F6
:100320003F934F935F936F937F938F939F93AF937D
:10033000BF93EF93FF930E948703FF91EF91BF91CB
:10034000AF919F918F917F916F915F914F913F916D
:100350002F910F900FBE0F901F9018955A9852989A
:100360000895FC0180914E02882309F4CBC080914E
:100370004F02833069F0843020F4823009F0A1C04C
:100380002EC0813109F456C0833109F09AC066C08D
:100390002091520230915302809152029091530267
:1003A000232F33278095909590702817390709F0EF
:1003B000A6C0809152029091530290709093530284
:1003C0008093520220915202309153028091540244
:1003D00090915502982F8827822B932B6EC02091E5
:1003E0005202309153028091520290915302232F76
:1003F000332780959095907028173907A9F0809140
:100400005002909151028E5E974809F078C08BE0BF
:1004100080934F028091520290915302892F992725
:100420009093510280935002809152029091530216
:10043000907043C0809152029091530220915202D9
:100440003091530296958795822780FF58C08091FE
:10045000520290915302969587952FC08091520237
:10046000909153028C70907096958795969587958C
:100470009093510280935002209152023091530286
:100480008091520290915302409152025091530236
:1004900083709070982F882720703071369527953B
:1004A00036952795822B932B407F5F7024E05695DD
:1004B00047952A95E1F7842B952B909353028093CF
:1004C000520280914F02808380915002909151029C
:1004D000928381838091520290915302948383830B
:1004E000809156028583109253021092520210920C
:1004F0005102109250021092560281E001C080E039
:1005000010924E020895F82F60912B0270913502DF
:10051000671738F180913602681718F580913B0211
:100520002F2F30E04091570250915802882381F0DC
:10053000862F90E0871B910902C0220F331F8A95F6
:10054000E2F7422B532B509358024093570269C055
:10055000440F551F242B352B3093580220935702FC
:1005600060C070913702671718F1809138026817E0
:10057000F8F480913B022F2F30E0409159025091C6
:100580005A02882381F0862F90E0871B910902C0D0
:10059000220F331F8A95E2F7422B532B50935A02B6
:1005A000409359023EC0440F551F242B352B35C0B4
:1005B00080912C028330D1F4613198F1653188F556
:1005C0008F2F90E0262F30E02151304002C0880F5D
:1005D000991F2A95E2F720915F0230916002282B43
:1005E000392B3093600220935F021BC08530C9F421
:1005F0006431B8F06831A8F48F2F90E0262F30E0F6
:100600002850304002C0880F991F2A95E2F72091A8
:10061000590230915A02282B392B30935A022093D9
:10062000590280912C02853051F5603340F5262F18
:1006300030E0E62FE695E695E695FF2381F0F0E0C1
:10064000EF59FD4F2770307081E090E002C0880FB5
:10065000991F2A95E2F72081282B208310C0F0E013
:10066000EF59FD4F2770307081E090E002C0880F95
:10067000991F2A95E2F780952081822380836F5FFE
:1006800060932B020895982F80912C0220912B02C9
:10069000882311F0225001C02150409146022417B6
:1006A000C8F0809147022817A8F4892F90E030E025
:1006B000241B310902C0880F991F2A95E2F7209167
:1006C0005B0230915C02282B392B30935C02209323
:1006D0005B020895409148022417C0F080914902BE
:1006E0002817A0F4892F90E030E0241B310902C0C4
:1006F000880F991F2A95E2F720915D0230915E02E2
:10070000282B392B30935E0220935D02089599B116
:1007100080914E02882309F000C7947080912A02CC
:100720008823E1F540912702992321F44F5F4093FC
:100730002702F3C6442319F181E080932A028093B3
:1007400028021092290210925A0210925902109215
:1007500058021092570210925E0210925D0210929F
:100760005C0210925B028FEF80932B0281E090E09D
:10077000909326028093250210921F02CEC680918C
:100780002302909124022FEF8F3F920709F4C5C6F0
:1007900001969093240280932302BFC68091280281
:1007A000882309F404C2409127029923B9F080916B
:1007B00025029091260201969093260280932502AD
:1007C0004252453120F021E08B34920720F48F54BF
:1007D000924008F4FDC480914F02DAC210923D02AB
:1007E000842F8A528D3060F48091250290912602E8
:1007F0008930910528F00F9718F468E670E08AC1F7
:1008000080914F02843171F44B3660F04E3F50F4CA
:1008100080912502909126028134910518F08B3B3E
:10082000910570F0842F8B568339B0F480912502A6
:10083000909126028533910530F08038910530F48F
:1008400069E770E067C18A31910530F08134910524
:1008500018F46AE870E05EC1842F8252853170F42A
:10086000809125029091260221E0813B920730F091
:100870008C58924018F46BE970E04CC1842F80557D
:10088000853168F48091250290912602803591058A
:1008900030F08536910518F46CEA70E03BC1842F86
:1008A00087538F3168F48091250290912602873317
:1008B000910530F08635910518F46DEB70E02AC192
:1008C000842F8C53803160F4809125029091260210
:1008D0008D31910528F0879718F46EEC70E01AC1FD
:1008E000542F5250533068F4809125029091260283
:1008F0008538910530F0863A910518F46FED70E077
:1009000009C1842F8F50873020F08F508D3008F030
:100910004AC02091250230912602C9010F970797FE
:1009200020F0C9014E970D97F0F5842F85528B303A
:1009300058F42031310540F02731310528F48DE39A
:1009400092E060EF70E00DC043524B3070F4233200
:10095000310558F02E32310540F48DE392E061E02C
:1009600071E041E150E00E947F0C2091250230911E
:10097000260230931E0220931D0280912702865189
:10098000853128F0265130402531310530F4109260
:100990001C0280E480931F0203C081E080931C024C
:1009A00062E171E0B7C0842F8550843078F42091E3
:1009B000250230912602C9014F970A9708F4A8C072
:1009C0002C5030402630310508F4A2C0842F8F52BD
:1009D0008E3098F480912502909126028F309105F7
:1009E00060F0469750F410921E0210921D0281E0B2
:1009F00080931C0264E371E08DC0533068F48091F1
:100A00002502909126028434910530F08E349105B0
:100A100018F465E471E07EC0842F84518E3060F458
:100A200080912502909126028430910528F00A9742
:100A300018F466E571E06EC0842F8350833078F43B
:100A400080912502909126028733910540F08734EA
:100A5000910528F410921C0267E671E05BC0842FB8
:100A600087508830A0F480912502909126028B3225
:100A7000910568F08134910550F490931E028093A3
:100A80001D0281E080931C0268E771E043C0842F5F
:100A90008450833018F084508530B0F420912502C2
:100AA00030912602C9010497039720F0C9010897E5
:100AB000059750F430931E0220931D0281E080932D
:100AC0001C0269E871E026C0842F85528B3060F4E7
:100AD00080912502909126028031910528F0479758
:100AE00018F460EF70E016C043524B3060F4809110
:100AF0002502909126028332910528F08E9718F4F2
:100B000061E071E007C010922A0260E070E002C06C
:100B100063E271E080912A02882331F08CE292E056
:100B200041E150E00E947F0C10922B0280913C0228
:100B3000282F30E080FF21C080912C028930E9F01D
:100B4000409125025091260280912E0290E0841758
:100B5000950750F4880F991F8417950728F036954C
:100B60002795822F809507C080911C028823A9F4C5
:100B700036952795822F81700EC080912C02883087
:100B800061F480912502909126024F970A9710F404
:100B900081E001C080E00E94830281E0809327020F
:100BA00010922602109225021092280211C3809101
:100BB0002902882309F4FBC2992309F4F2C0909119
:100BC0002B0280913902981799F480913A02813072
:100BD00079F49091270280913102981708F4D8C0D7
:100BE00080913202891708F4D3C010923A02F0C201
:100BF00060912502709126026F5F7F4F70932602ED
:100C00006093250250912C02513051F56F307105DF
:100C100008F463C040912B024B3008F45EC04F5F74
:100C2000409339024150242F30E02B503040322F76
:100C300022278091570290915802822B932B9093F8
:100C400058028093570280913702840F8F5F809300
:100C500038028DE090E09093260280932502A1C097
:100C60005F30D9F580913A028823B9F5809130023E
:100C700090E0880F991F8617970740F480912B0208
:100C8000883020F08AE08093390241C080912B02A5
:100C90008A3008F49DC280E180932C0299E0909301
:100CA000350281E18093360281E080933702909390
:100CB00038022091590230915A02C9018070937014
:100CC000892B09F485C23093570210925802307074
:100CD00030935A02209359027BC280913C0280FFDC
:100CE0001AC08091300290E0880F991F86179707ED
:100CF00090F420912B0230E08091390290E002972D
:100D00002817390744F080913A02882321F481E0C2
:100D100080933A0246C06B54714008F459C2409126
:100D20002B02242F30E08091390290E001972817A0
:100D3000390741F480913A02882321F44F5F4093B0
:100D40002B0246C2523021F54051423008F541E0B5
:100D500040933A0284E180932C0280912B0280938D
:100D6000390280915702909158029C01A4E0369577
:100D70002795AA95E1F730935A02209359028F7074
:100D80009070909358028093570240932A0220C299
:100D900010922A0210922702109226021092250227
:100DA00017C280913C02282F30E080FF3EC1909115
:100DB000270280912E02891708F04EC080912C02E4
:100DC000893091F480912B02843071F4903160F07D
:100DD00080913902843221F481E00E94830229C08B
:100DE00080E00E94830222C036952795822F80954D
:100DF00081700E94830280912C028930E1F48091FD
:100E00002B028430C1F4809127028031A0F081E070
:100E10000E9483028091300290E0880F991F2091F8
:100E20002502309126028217930718F410921C02B3
:100E30007DC081E00EC080913C0290E09695879540
:100E400081700E94830280913C0290E09695879584
:100E5000817080931C026AC080912D029817D0F196
:100E600020911D0230911E028091300290E0821785
:100E7000930770F4880F991F8217930748F020E0BA
:100E800080911C02882309F421E020931C0202C0F7
:100E900020911C0280912C028930C1F480912B0298
:100EA0008130A1F4213091F494E29093390285E0ED
:100EB0008093350284E18093360285E18093370286
:100EC000909338021092580210925702822F0E947B
:100ED00083022CC080913D02823191F4933000F165
:100EE0009B30F0F42091250230912602C9010A9727
:100EF000099798F0215030402630310588F40DC014
:100F0000833171F4993060F0903150F48091250272
:100F1000909126020597449718F410922C0206C06F
:100F200010922A02109226021092250280913D0210
:100F30008231B9F580912702833098F18B3088F5A2
:100F40002091250230912602C9010A97099710F4D1
:100F500081E006C0215030402630310518F480E091
:100F60000E94430380912C028823D9F4ACE2B2E0C2
:100F7000EDE3F2E081E101900D928150E1F71092F2
:100F80003D0280915B0290915C02909358028093A5
:100F9000570280915D0290915E0290935A02809375
:100FA000590280913D028331B9F580912702893041
:100FB00098F1803188F52091250230912602C901EF
:100FC0000597099710F481E006C02C5030402D3071
:100FD000310518F480E00E94430380912C0288239D
:100FE000D9F4ACE2B2E0EDE3F2E081E101900D92E0
:100FF0008150E1F710923D0280915B0290915C027A
:10100000909358028093570280915D0290915E0206
:1010100090935A0280935902809125029091260262
:1010200090931E0280931D02B7C080912C028330E2
:1010300089F580912B02803109F077C080912702D9
:101040008750893008F0ABC080912502909126022C
:101050008035910558F08536910540F410922902AB
:101060001092600210925F0281E13EC08AE080939C
:101070002C0280E18093370280E2809338028093D3
:10108000390280912502909126024397459708F0F6
:1010900080C065C08E3009F048C08091270283501F
:1010A000833008F07CC080912B02813071F48091F4
:1010B0002502909126028E5F90408C34910508F0B5
:1010C0006EC01092290282E00FC02091250230915B
:1010D0002602833161F4205E30402132310508F070
:1010E0005EC01092290284E180932B025EC0C90188
:1010F000885A9040889738F481E00E94830281E00A
:1011000080931C0249C0C901C797409730F480E022
:101110000E94830210921C023FC0205730402C31A5
:101120003105E8F580911C0235C04091270280917D
:101130002D024817B0F080912E02841790F0209174
:1011400025023091260280912F0290E0281739075E
:1011500040F08091300290E08217930710F081E018
:1011600019C0809131024817D0F080913202841763
:10117000B0F020912502309126028091330290E058
:101180002817390760F08091340290E082179307A6
:1011900030F080E00E9483021092290206C0109273
:1011A0002A02109226021092250281E005C099239E
:1011B00031F4809127028F5F8093270209C081E07C
:1011C0008093290281E090E090932602809325028B
:1011D00080912A02882309F4A0C190912B0280916A
:1011E0003902981709F099C180913A02882309F0D1
:1011F00094C1209117023091180280915902909168
:101200005A022817390769F4809123029091240229
:101210008054964030F4809122028F5F80932202A6
:1012200002C01092220280912C02813031F4809110
:10123000220281508230A8F40FC0853029F48091B9
:101240002202813071F408C08A3011F08D3049F4E7
:101250008091220280FF05C0109224021092230286
:101260000FC181E080934E0240912C02483049F535
:101270006091590270915A029B012095309533700C
:1012800080912002909121022817390799F4309318
:101290005A022093590240934F0280915702909135
:1012A000580290935102809350023093530220933E
:1012B0005202E6C010924E02709321026093200207
:1012C000DFC04F3041F48091590290915A028F5FF4
:1012D0009140E9F510C0403189F480915702909116
:1012E00058028F3F910599F58091590290915A02C9
:1012F0008E3F910561F510924E02C2C0423039F521
:1013000080912B02882319F5809123029091240269
:1013100080569940D0F48091190290911A029093CE
:10132000580280935702809117029091180290936F
:101330005A0280935902809156028160809356022E
:10134000109224021092230202C010924E02809149
:101350002C02853041F58091610290916202282F24
:101360002F7082958F702827892F8F70282792954C
:101370009F70292730E08091630290E08F70907019
:101380002817390711F010924E0280916402909153
:1013900063028927909165028927909166028917D7
:1013A00011F010924E0290912C02993041F48091EC
:1013B0003902843221F485E180934F0202C0909378
:1013C0004F0280912C02823171F5809159029091E7
:1013D0005A029C0144E0369527954A95E1F78F70B3
:1013E0009070892B09F0206830935A02209359029B
:1013F00040915702509158029A01220F331F220F39
:10140000331F20703F708091590290915A02822BB5
:10141000932B90935A02809359024F7350705093BC
:10142000580240935702809157029091580290932E
:1014300051028093500290931A0280931902809176
:101440002C02873069F420911F0230E0809159020C
:1014500090915A02822B932B90935A0280935902B7
:101460008091590290915A029093530280935202B4
:1014700080915F0290916002909355028093540294
:1014800080914E028823B1F1209152023091530293
:10149000809117029091180282179307B9F4209156
:1014A0005002309151028091190290911A028217D4
:1014B000930761F48091230290912402885B9B4002
:1014C00028F48091560281608093560280915702E1
:1014D0009091580290931A028093190280915902B8
:1014E00090915A029093180280931702109224024E
:1014F0001092230210922A0210925A02109259025C
:1015000010922702109226021092250280914F021B
:10151000843119F483EB8093270280914E02089561
:1015200089E18093C4001092C5001092C00086E04B
:101530008093C20088E18093C10008958091C0002B
:1015400087FD02C080E008958091C60008958091D3
:10155000C00087FFFCCF8091C6000895982F80912E
:10156000C00085FFFCCF9093C6000895FC0107C022
:101570008091C00085FFFCCF31969093C60090818A
:101580009923B1F70895982F8091C00085FFFCCF73
:1015900080E38093C6008091C00085FFFCCF88E780
:1015A0008093C6008091C00085FFFCCF892F829573
:1015B0008F70805D8093C6008091C00085FFFCCF56
:1015C0009F70905D9093C60008952F9A8DE08A9544
:1015D000F1F72F9885E88A95F1F70895982F15B8B7
:1015E0008091710287FF16C0892F807F8BB92F9A57
:1015F0008DE08A95F1F72F9885E88A95F1F7892F84
:10160000992787FD909524E0880F991F2A95E1F787
:101610008BB901C09BB92F9A8DE08A95F1F72F986D
:1016200085E88A95F1F708956932710514F060E054
:1016300070E08130910531F0029711F080E804C02C
:10164000685D7F4F862F80680E94EE0A089581E0D2
:101650000E94EE0A80EA9FE00197F1F708958091D9
:10166000710284608093710283FD02C086E001C034
:1016700087E00E94EE0A0895809171028B7F80932B
:10168000710283FD02C084E001C085E00E94EE0A81
:10169000089580917102877F8093710282FD02C05C
:1016A00084E001C086E00E94EE0A089580917102F4
:1016B00088608093710282FD02C084E001C086E0F0
:1016C00081600E94EE0A0895809171028F7D80935F
:1016D0007102282F332727FD309524FD02C098E0A2
:1016E00001C09CE026FD9260892F0E94EE0A0895B9
:1016F0008091710280628093710284FD02C088E053
:1017000001C08CE083600E94EE0A0895809171020E
:101710008F7B8093710284FD02C088E001C08CE061
:101720000E94EE0A08958091710280648093710294
:10173000282F332727FD309524FD02C098E001C0F3
:101740009CE0892F826025FF02C0892F83600E9460
:10175000EE0A0895809171028F7E8093710288E075
:101760000E94EE0A08958091710280618093710257
:10177000282F332727FD309526FD02C09CE001C0AD
:101780009EE025FD9160892F0E94EE0A0895982F12
:1017900080E485B98091710287FF16C0892F807F10
:1017A0008BB92F9A8DE08A95F1F72F9885E88A9565
:1017B000F1F7892F992787FD909534E0880F991FBD
:1017C0003A95E1F78BB901C09BB92F9A8DE08A95C4
:1017D000F1F72F9885E88A95F1F70895CF93DF9375
:1017E000EC0103C00E94C70B219688818823D1F7A2
:1017F000DF91CF9108951F93182F80E30E94C70BAC
:1018000088E70E94C70B812F82958F70805D0E94B0
:10181000C70B1F70812F805D0E94C70B1F91089519
:1018200010926E0210926D0281E090E0909370022F
:1018300080936F021092710280E395E70197F1F7B0
:1018400088E30E94EE0A80E197E20197F1F788E3CE
:101850000E94EE0A80ED97E00197F1F788E30E947D
:10186000EE0A88E30E94EE0A88E30E94EE0A0E94D4
:10187000AA0B0E94270B82E00E94EE0A80EA9FE0FA
:101880000197F1F70E94B30B089510926E02109227
:101890006D0281E090E09093700280936F0210924D
:1018A000710280E395E70197F1F788E30E94EE0A61
:1018B00080E197E20197F1F788E30E94EE0A80ED5C
:1018C00097E00197F1F788E30E94EE0A88E20E9410
:1018D000EE0A8091710280688093710288E20E9412
:1018E000EE0A0E94AA0B0E94270B82E00E94EE0AD9
:1018F00080EA9FE00197F1F70E94B30B0895FB0186
:10190000DC0102C005900D9241505040D8F7089577
:04191000F894FFCF79
:1019140049522D436F6465632D5465737465720079
:10192400426572656974210049522D436F64656391
:101934002D5465737465722C204265726569742137
:101944000A0D00436F6465633A004144443A00431E
:101954004F4D3A000A0D436F64653A20000A0D4169
:101964006464726573733A20000A0D436F6D6D6190
:101974006E643A20000A0D005349524353004E4509
:10198400430053414D53554E47004D415453555315
:1019940048004B415345494B594F00524543533836
:1019A40030005243352878290044454E4F4E0052AA
:1019B40043360053414D53473332004150504C4558
:1019C4000052454353383058004E55424552540056
:1019D40042264F004752554E444947004E4F4B490B
:1019E40041005349454D454E53004644430052433C
:1019F400434152004A564300524336410068016E47
:101A04000172017A0182018B01920199019F01A364
:101A140001AB01B101B901C001C401CC01D201DAA9
:0C1A240001DE01E401E801FFFFFFFF000C
:00000001FF
