:100000000C944E000C946B000C946B000C946B00E1
:100010000C946B000C946B000C946B000C946B00B4
:100020000C946B000C946B000C946B000C94CF013F
:100030000C946B000C946B000C946B000C946B0094
:100040000C946B000C946B000C946B000C946B0084
:100050000C946B000C946B000C946B000C946B0074
:100060000C946B000C946B0002020909190209023E
:1000700009001010202001010002020909190209DB
:100080000209000000000001010007070B070B0137
:100090000101010207070D0D0000010011241FBE20
:1000A000CFEFD4E0DEBFCDBF12E0A0E0B1E0EEE2E2
:1000B000FFE002C005900D92AC36B107D9F712E00F
:1000C000ACE6B2E001C01D92AF39B107E1F70E9482
:1000D000AD000C9495070C9400008FEF84B987B99C
:1000E0008AB915B818B81BB83C9A08958FE193E007
:1000F000909389008093880089E08093810082E05A
:1001000080936F000895E22F2091940230E09927A8
:1001100087FD909528173907E9F480919502909111
:10012000960286179707B1F48091970290919802F2
:100130008417950779F440E08091990290E02E2F82
:10014000332727FD30958217930709F041E081E0BE
:10015000482701C040E0842F0895EF92FF920F934B
:100160001F93CF93DF938FEF84B987B98AB915B8FE
:1001700018B81BB83C9A0E94F9060E9406050E9416
:10018000F3018FE193E0909389008093880089E0E8
:100190008093810082E080936F000E94BF0681E01F
:1001A00090E060E070E00E948D0580E091E00E94A8
:1001B000670682E090E060E070E00E948D0586E0D6
:1001C00091E00E94670689E091E00E942C057894F6
:1001D00080E00E94280700E010E0C1E0D0E098EC49
:1001E000E92EF12C01C0E80180917A0086FD07C05C
:1001F000009178001091790080E00E9428070C1788
:100200001D0711F181E090E060E070E00E948D0533
:1002100088E291E00E94670682E090E060E070E092
:100220000E948D058EE291E00E946706802F0E9459
:10023000740682E391E00E942C05802F0E9439050C
:1002400085E491E00E942C0584E992E00E94F60189
:10025000882349F280919902882329F6809194029B
:10026000873009F077C0809195029091960288308E
:10027000910509F04EC080919702909198028032CA
:10028000910511F581E090E060E070E00E948D053D
:1002900088E491E00E94670682E090E060E070E010
:1002A0000E948D058EE491E00E94670684E591E04E
:1002B0000E942C05449A84EC99E0F7013197F1F7FC
:1002C0000197D9F744988FCF819709F043C081E017
:1002D00090E060E070E00E948D0588E491E00E946B
:1002E000670682E090E060E070E00E948D0588E69D
:1002F00091E00E9467068EE691E00E942C05459AE7
:1003000084EC99E0F7013197F1F70197D9F7459817
:100310006ACF892BF9F480919702909198024197C6
:10032000C9F481E090E060E070E00E948D0582E811
:1003300091E00E94670682E090E060E070E00E9439
:100340008D0588E891E00E9467068EE891E00E94A2
:100350002C0549CF0E94A00581E090E060E070E0AC
:100360000E948D05E0919402F0E0EE0FFF1FE55C26
:10037000FD4F808191810E94670682E090E060E0FD
:1003800070E00E948D05809195020E9474068BE3B7
:100390000E944006809197020E94740624CF1F920B
:1003A0000F920FB60F9211242F933F934F935F93A9
:1003B0006F937F938F939F93AF93BF93EF93FF932D
:1003C0000E94AB02FF91EF91BF91AF919F918F91EE
:1003D0007F916F915F914F913F912F910F900FBE41
:1003E0000F901F9018955A9852980895FC0180918B
:1003F00089028823A9F180918A02823091F52091A7
:100400008D0230918E0280918D0290918E02232F69
:10041000332780959095907028173907A1F0809127
:100420008B0290918C028E5E9748B9F48BE080939A
:100430008A0280918D0290918E02892F9927909344
:100440008C0280938B0280918D0290918E0290702D
:1004500090938E0280938D0204C080E010928902F6
:10046000089580918A02808380918B0290918C0202
:100470009283818380918D0290918E0294838383F5
:1004800080918F02858310928E0210928D021092BD
:100490008C0210928B0210928F0281E0DFCF982F96
:1004A0006091770270918102671738F18091820222
:1004B000681718F580918702292F30E0409190024B
:1004C00050919102882381F0862F90E0871B91093B
:1004D00002C0220F331F8A95E2F7422B532B509311
:1004E00091024093900233C0440F551F242B352BAB
:1004F00030939102209390022AC070918302671773
:1005000030F180918402681710F580918702292FBD
:1005100030E04091920250919302882381F0862F1F
:1005200090E0871B910902C0220F331F8A95E2F7E2
:10053000422B532B509393024093920208C0440FD6
:10054000551F242B352B30939302209392026F5F1B
:1005500060937702089599B180918902882309F008
:1005600052C2292F247080917602882381F59091C0
:100570007302222321F49F5F9093730244C2992354
:10058000B9F091E090937602909374021092750204
:100590001092930210929202109291021092900285
:1005A0008FEF809377029093720210926E022BC2AB
:1005B00080917002909171022FEF8F3F920709F4A2
:1005C00022C2019690937102809370021CC28091A6
:1005D0007402882309F483C0222349F080917202B7
:1005E0008F5F80937202863A08F461C1CDC020917A
:1005F0007302822F85538B3480F4809172028A318A
:1006000028F0813428F468E670E02FC08C3028F0A0
:10061000813218F469E770E028C0822F8750853056
:1006200018F087508930E8F490917202892F875032
:10063000853018F087508930A0F490936D022C50CB
:100640002B3018F09C509B3030F410926C0280E4F8
:1006500080936E0203C081E080936C026AE870E0D0
:1006600004C01092760260E070E0809176028823E8
:1006700031F088E792E041E150E00E948C0710924F
:10068000770280918802482F50E080FF20C080913F
:1006900078028930E1F02091720280917A0282170B
:1006A00060F430E090E0880F991F821793072CF0D8
:1006B00056954795842F809507C080916C028823BA
:1006C00031F456954795842F81700E944F0281E046
:1006D000809373021092720210927402E8C08091AB
:1006E0007502882309F4D6C0222309F454C050911E
:1006F000770260918502561789F4809186028130D5
:1007000069F49091730280917D029817E8F18091CD
:100710007E028917C8F110928602C9C04091720208
:100720004F5F409372028091880280FF1AC0242F8D
:1007300030E080917C0290E0880F991F8217930728
:1007400084F4252F30E0862F90E002972817390790
:1007500044F080918602882321F481E08093860210
:100760001AC0463A08F4A3C0252F30E0862F90E047
:1007700001972817390741F480918602882321F4D4
:100780005F5F5093770293C01092760210927302CB
:10079000109272028CC080918802282F30E09091D4
:1007A000730280FF45C080917A028917C0F43695A4
:1007B0002795822F809581700E944F028091880238
:1007C00090E09695879581700E944F0280918802F3
:1007D00090E096958795817080936C0224C08091FB
:1007E00079029817E0F020916D0280917C028217C7
:1007F00080F430E090E0880F991F821793074CF047
:1008000090E080916C02882309F491E090936C024F
:1008100002C090916C02892F0E944F0204C0109276
:100820007602109272028091720280936D0215C05E
:10083000809179029817A0F080917A02891780F050
:100840002091720280917B02281750F080917C02E7
:10085000821730F081E00E944F021092750218C09A
:1008600080917D02981780F080917E02891760F058
:100870009091720280917F02981730F080918002EF
:10088000891710F080E0E7CF109276021092720282
:1008900081E005C0222331F4809173028F5F809341
:1008A000730205C081E0809375028093720280918B
:1008B0007602882309F4A7C03091770280918502DF
:1008C000381709F0A0C080918602882309F09BC0E8
:1008D00060916702709168028091920290919302F8
:1008E0006817790769F480917002909171028052C3
:1008F000934030F480916F028F5F80936F0202C04B
:1009000010926F0281E08093890220917802223058
:1009100009F53323F9F48091700290917102805BA4
:100920009440B0F48091690290916A029093910290
:1009300080939002709393026093920280918F0251
:10094000816080938F02109271021092700202C037
:100950001092890220938A02409190025091910254
:1009600050938C0240938B0250936A024093690229
:10097000273069F420916E0230E0809192029091CC
:100980009302822B932B9093930280939202209157
:1009900092023091930230938E0220938D028091C7
:1009A0008902882331F180918D0290918E0268171F
:1009B000790799F480918B0290918C02481759071E
:1009C00061F480917002909171028C5D954028F4E1
:1009D00080918F02816080938F0250936A024093CE
:1009E000690230936802209367021092710210929C
:1009F000700210927602109293021092920210925C
:100A000073021092720280918902089589E18093A5
:100A1000C4001092C5001092C00086E08093C2000E
:100A200088E18093C10008958091C00087FD02C0D5
:100A300080E008958091C60008958091C00087FFEE
:100A4000FCCF8091C6000895982F8091C00085FF4B
:100A5000FCCF9093C6000895FC0107C08091C000B0
:100A600085FFFCCF31969093C60090819923B1F712
:100A70000895282F982F92959F709A3034F4809182
:100A8000C00085FFFCCF905D05C08091C00085FF50
:100A9000FCCF995C9093C600922F9F709A3034F4EB
:100AA0008091C00085FFFCCF905D05C08091C000A3
:100AB00085FFFCCF995C9093C60008952F9A8DE036
:100AC0008A95F1F72F9885E88A95F1F70895982F80
:100AD00015B880919E0287FF16C0892F807F8BB941
:100AE0002F9A8DE08A95F1F72F9885E88A95F1F78E
:100AF000892F992787FD909524E0880F991F2A95C3
:100B0000E1F78BB901C09BB92F9A8DE08A95F1F777
:100B10002F9885E88A95F1F708956932710514F0E8
:100B200060E070E08130910531F0029711F080E8CB
:100B300004C0685D7F4F862F80680E946705089516
:100B400081E00E94670580EA9FE00197F1F7089530
:100B500080919E02846080939E0283FD02C086E0A5
:100B600001C087E00E946705089580919E028B7FF7
:100B700080939E0283FD02C084E001C085E00E9454
:100B80006705089580919E02877F80939E0282FD73
:100B900002C084E001C086E00E946705089580914C
:100BA0009E02886080939E0282FD02C084E001C0A4
:100BB00086E081600E946705089580919E028F7D86
:100BC00080939E02282F332727FD309524FD02C0F5
:100BD00098E001C09CE026FD9260892F0E94670585
:100BE000089580919E02806280939E0284FD02C0DF
:100BF00088E001C08CE083600E94670508958091C1
:100C00009E028F7B80939E0284FD02C088E001C01B
:100C10008CE00E946705089580919E028064809315
:100C20009E02282F332727FD309524FD02C098E02F
:100C300001C09CE0892F826025FF02C0892F83605C
:100C40000E946705089580919E028F7E80939E0288
:100C500088E00E946705089580919E0280618093DC
:100C60009E02282F332727FD309526FD02C09CE0E9
:100C700001C09EE025FD9160892F0E9467050895BF
:100C8000982F80E485B980919E0287FF16C0892F36
:100C9000807F8BB92F9A8DE08A95F1F72F9885E8A0
:100CA0008A95F1F7892F992787FD909534E0880F71
:100CB000991F3A95E1F78BB901C09BB92F9A8DE046
:100CC0008A95F1F72F9885E88A95F1F70895CF93E3
:100CD000DF93EC0103C00E9440062196888188239F
:100CE000D1F7DF91CF9108951F93182F82958F70C0
:100CF0008A3014F4805D01C0895C0E944006812F17
:100D00008F708A3014F4805D01C0895C0E944006B7
:100D10001F91089510929B0210929A0281E090E038
:100D200090939D0280939C0210929E0280E395E72F
:100D30000197F1F788E30E94670580E197E2019748
:100D4000F1F788E30E94670580ED97E00197F1F7DE
:100D500088E30E94670588E30E94670588E30E9494
:100D600067050E9423060E94A00582E00E94670595
:100D700080EA9FE00197F1F70E942C0608951092F7
:100D80009B0210929A0281E090E090939D028093E2
:100D90009C0210929E0280E395E70197F1F788E3A9
:100DA0000E94670580E197E20197F1F788E30E94CE
:100DB000670580ED97E00197F1F788E30E946705EA
:100DC00088E20E94670580919E02806880939E025F
:100DD00088E20E9467050E9423060E94A00582E027
:100DE0000E94670580EA9FE00197F1F70E942C06B8
:100DF000089580E480937C0083E080937A00809162
:100E00007A00806880937A0080917A008064809371
:100E10007A0080917A0086FDFCCF809178009091D5
:100E20007900089590917C008F71907E892B80933A
:100E30007C0080917A00806480937A0080917A00AF
:100E400086FDFCCF2091780030917900C90108958A
:100E5000ECE7F0E090818F71907E892B8083EAE748
:100E6000F0E08081806480830895EF92FF920F9379
:100E70001F9370E0EE24FF248701282F2F711AC0E2
:100E800080917C00807E822B80937C0080917A0010
:100E9000806480937A0080917A0086FDFCCF8091F7
:100EA000780090917900A0E0B0E0E80EF91E0A1FEA
:100EB0001B1F7F5F761720F3262F30E040E050E0C5
:100EC000C801B7010E946A07C9011F910F91FF90E5
:100ED000EF900895A1E21A2EAA1BBB1BFD010DC0C5
:100EE000AA1FBB1FEE1FFF1FA217B307E407F507DA
:100EF00020F0A21BB30BE40BF50B661F771F881FB6
:100F0000991F1A9469F760957095809590959B014B
:100F1000AC01BD01CF010895FB01DC0102C00590C9
:0E0F20000D9241505040D8F70895F894FFCF3D
:100F2E0042657265690074210057656964657A616E
:100F3E00756E436F6E74726F6C6C65722C204265A9
:100F4E0072656974210A0D006164633A20002030D5
:100F5E0078004E65756572204144432D5765727455
:100F6E003A203078000D0A005A61756E2000204F2D
:100F7E004E2020005A61756E2045696E736368615C
:100F8E006C74656E210D0A00204F464620005A6192
:100F9E00756E20417573736368616C74656E210D97
:100FAE000A00426174742E002D2D2D2D2D005370CC
:100FBE00616E6E756E67736D617373756E67206E9D
:100FCE006F6368206E6963687420696D706C656DFF
:100FDE00656E7469657274210D0A0053495243534C
:100FEE00004E45430053414D53554E47004D41541D
:100FFE0053555348004B415345494B594F005245A9
:10100E0043533830005243350044454E4F4E005244
:10101E0043360053414D53473332004150504C45F7
:10102E000052454353383058004E554245525400F5
:10103E0042264F004752554E444947004E4F4B49AA
:10104E0041005349454D454E5300464443005243DB
:10105E00434152004A5643005243364100BB01C140
:10106E0001C501CD01D501DE01E501E901EF01F375
:10107E0001FB0101020902100214021C0222022AC3
:0C108E00022E0234023802FFFFFFFF00B8
:00000001FF
